:100000000C944D000C946C000C946C000C946C00DF
:100010000C946C000C946C000C946C000C946C00B0
:100020000C946C000C946C000C946C000C946C00A0
:100030000C946C000C9467030C946C000C946C0092
:100040000C946C000C946C000C946C000C946C0080
:100050000C946C000C946C000C946C000C946C0070
:100060000C946C000C946C000C946C000C946C0060
:100070000C946C000C946C000C946C000C946C0050
:100080000C946C000C946C000C946C0051020002F7
:10009000510214021E023502330211241FBECFEF9B
:1000A000D0E4DEBFCDBF11E0A0E0B1E0EAE0FBE0CC
:1000B00000E00BBF02C007900D92AC37B107D9F733
:1000C00021E0ACE7B1E001C01D92A13AB207E1F72F
:1000D0000E94BF040C9483050C94000020918901B8
:1000E00030918A018130910569F034F4019609F06C
:1000F00059C080E090E04DC082309105E9F003974F
:1001000011F150C040912601413351F480E094E058
:10011000909388018093870182E3809326014AC0EF
:100120004033B9F580E094E0909388018093870193
:1001300082E3809326010CC080918601813041F4D6
:10014000109286012FC080918601813099F5F8CFF9
:100150002730310554F58091870190918801181658
:1001600019061CF5019790938801809387012F5FF2
:100170003F4F30938A0120938901809187019091AC
:100180008801181619061CF081E08093860182E030
:1001900090E0E0918901F0918A01E95DFE4F2081B4
:1001A00022B9089581E090E0F4CF10928A01109274
:1001B0008901E3CF121613069CF480918701909178
:1001C00088011816190664F40197909388018093AA
:1001D00087012150310930938A012093890106C09B
:1001E00087E090E090938A01809389018091870154
:1001F00090918801181619061CF081E08093860101
:1002000083E090E0C6CF21E030E0062E01C0220F4F
:100210000A94EAF7442311F0282B02C020952823E2
:10022000822F089521E030E0062E01C0220F0A94AB
:10023000EAF7822308958FEE88B90000309B41C011
:10024000319B41C0329B41C0339B41C08FED88B987
:100250000000309B1EC0319B1EC0329B1EC0339BD2
:100260001EC08FEB88B90000309B1BC0319B1BC0A8
:10027000329B1BC0339B1BC08FE788B90000309BAB
:1002800018C0319B18C0329B18C0339918C084E441
:10029000089582E3089585E3089588E3089580E34F
:1002A000089583E3089586E3089589E3089583E23A
:1002B000089581E4089582E4089583E4089580E038
:1002C000089581E3089584E3089587E308958AE219
:1002D000089540E050E0481759075CF427E033E008
:1002E00000002150310921153105D1F74F5F5F4FD3
:1002F000F2CF08955D9885B95E9A00005E9882E01D
:1003000090E00C94690181E00C947A0184E690E01D
:100310000E94690188E30E947A0186E00E947A01C6
:100320008FE00E947A0181E00E947A018AE090E0E9
:100330000C9469015D9A85B95E9A00005E9881E02F
:1003400090E00C946901813110F4815801C081550D
:100350000C947A01CF92DF92FF920F931F93CF9369
:10036000DF9300D0CDB7DEB7F82E69837A830E9481
:1003700083016981C62E7A81D72EF61A8C2D8F0DB6
:100380008601F6019081992351F00E94A3018FEF1D
:10039000C81AD80AF80180810E949A01EFCF0F9005
:1003A0000F90DF91CF911F910F91FF90DF90CF9031
:1003B0000895FF920F931F93CF93DF93C62FD72FEC
:1003C000F82EF61A8C2F8F0D8E019881992341F00B
:1003D0000E94A3012196F80180810E949A01F2CF28
:1003E000DF91CF911F910F91FF900895FC013196FD
:1003F000E730F10508F03FC0EA5BFF4F0C9443057E
:100400000E941B018093A00190918C01882331F000
:100410008154843018F0992309F44BC0913009F0CD
:1004200040C010928C0184C080918B01811103C067
:100430000E94830136C00E948301C4C00E941B0138
:100440008093A001833331F480912501813309F039
:10045000B9C0CFC0863309F0B5C080912501803383
:1004600009F0B0C0BCC081E301C080E380932601E5
:100470008093250116C08230910509F459C034F4E7
:10048000009779F081309105A1F0089584309105AD
:1004900009F4AFC00CF496C08530910509F49FC0F3
:1004A000089565E371E081E00E94D90180E090E069
:1004B000089580912F01909130019C012F5F3F4F53
:1004C0003093300120932F010E94A3018AE20E9401
:1004D0009A0180918F01909190019C012F5F3F4F75
:1004E0003093900120938F01FC01E456FE4F209140
:1004F000A0012083809191019091920101969093A7
:10050000920180939101049709F07DC08CE090E006
:100510009093300180932F0181E080938C011092A1
:100520009201109291011092900110928F016BC074
:100530000E9483018CE991E00E945D0590938E01F9
:1005400080938D012091220130912301821793071E
:1005500071F020912001309121018217930739F029
:1005600020911E0130911F018217930749F461E425
:1005700071E081E00E94AA0181E080938B0146C076
:100580006DE471E081E00E94AA0110929C0110923A
:100590009D0110929E0110929F0110928B018091FB
:1005A000830190918401019690938401809383014B
:1005B00063E070E00E942F05892B41F581E3809371
:1005C000240124C06BE571E081E00E94D90165E659
:1005D00071E081E10E94D90183E090E008950E94DA
:1005E00083016FE671E081E00E94D90185E090E02F
:1005F00008950E94830164E771E081E00E94D901BF
:1006000084E090E0089581E090E0089582E090E039
:100610000895CF93DF931092990180919901909161
:100620009301891708F050C0C0919A01D0919B01A5
:100630009BE0899FC00DD11D11244D815E816F818A
:10064000788589819A81AB81BC81481759076A07EF
:100650007B07B8F08881E985FA85992787FD909511
:100660000995888380919901E0919A01F0919B010D
:100670009BE0899FE00DF11D1124158216821782DF
:10068000108620919901E0919A01F0919B018BE0F5
:10069000289FE00DF11D112485819681A781B085E9
:1006A00040913101509132016091330170913401D8
:1006B000840F951FA61FB71F85839683A783B087D6
:1006C0002F5F20939901A9CFDF91CF9108951F92B9
:1006D0000F920FB60F9211240BB60F922F933F93E8
:1006E0004F935F936F937F938F939F93AF93BF933A
:1006F000EF93FF938091940190919501A0919601C1
:10070000B09197010197A109B10980939401909349
:100710009501A0939601B0939701892B8A2B8B2B7F
:1007200091F40E9409038091310190913201A091CE
:100730003301B09134018093940190939501A0937B
:100740009601B0939701FF91EF91BF91AF919F9167
:100750008F917F916F915F914F913F912F910F906A
:100760000BBE0F900FBE0F901F9018956093310134
:10077000709332018093330190933401609394011C
:1007800070939501809396019093970108958BE063
:10079000809381008DE790E090938900809388009A
:1007A00082E080936F001092850010928400809107
:1007B000310190913201A0913301B09134018093C5
:1007C000940190939501A0939601B09397018FB7F0
:1007D00080688FBF0895813081F08091C100886169
:1007E0008093C1008091C20086608093C20083E341
:1007F0008093C4001092C50008958091C90088615B
:100800008093C9008091CA0086608093CA0083E308
:100810008093CC001092CD000895813019F0809122
:10082000C00002C08091C80080720895813019F024
:100830008091C00002C08091C8008074089581300A
:1008400019F08091C00002C08091C800807808959E
:10085000813051F48091C80087FF05C08091CE009F
:1008600080939801F7CF08958091C00087FF05C05D
:100870008091C60080939801F7CF0895613039F0D8
:100880009091C00095FFFCCF8093C6000895909191
:10089000C80095FFFCCF8093CE0008958F3F2FEFC7
:1008A000920729F420912401213319F0089500972B
:1008B000E9F48091C00085FF17C08091810190917B
:1008C00082018F30910584F4FC01E25FFE4F60E00D
:1008D00080810E943E048091810190918201019665
:1008E000909382018093810180E090E008958130AF
:1008F00039F08091C00087FFFCCF8091C600089539
:100900008091C80087FFFCCF8091CE0008950097AA
:1009100021F08130910581F1089520917C012133EE
:1009200069F58091C00087FF24C080E00E947704B1
:100930008093850120918F0130919001A9014F5F33
:100940005F4F5093900140938F01F901E456FE4FA1
:10095000808380E00E942804809185010E949A0192
:1009600080917F0190918001019690938001809306
:100970007F0181E090E0089582E090E00895CF93B8
:10098000DF93CDB7DEB7A1970FB6F894DEBF0FBEE9
:10099000CDBF80E00E94EB0380E00E94280480EF3E
:1009A00087B98FE088B91FEF14B915B81AB91BB809
:1009B00012B811B90E94860183E080939301CE01A1
:1009C000019690939B0180939A01198386E990E0A8
:1009D000A0E0B0E08A839B83AC83BD838E839F833A
:1009E000A887B9872EE434E03B872A871C8748EC28
:1009F00050E060E070E04D875E876F87788B498BB1
:100A00005A8B6B8B7C8B26EF31E03E8B2D8B1F8BB3
:100A100043E050E060E070E0488F598F6A8F7B8F31
:100A20008C8F9D8FAE8FBF8F8EE690E099A388A3A9
:100A300081E090E0A0E0B0E080933101909332013A
:100A4000A0933301B0933401809394019093950166
:100A5000A0939601B09397010E94C703FFCF97FB25
:100A6000072E16F4009407D077FD09D00E9449059F
:100A700007FC05D03EF4909581959F4F08957095A1
:100A800061957F4F0895EE0FFF1F0590F491E02DC3
:100A90000994AA1BBB1B51E107C0AA1FBB1FA617C5
:100AA000B70710F0A61BB70B881F991F5A95A9F717
:100AB00080959095BC01CD010895FC018827992768
:100AC000E89421912032E9F3293010F02E30C8F358
:100AD0002B3241F02D3239F4689404C00E947B051A
:100AE000820F911D219120532A30C0F31EF490955E
:100AF00081959F4F08957AE0979F902D879F802D35
:0A0B0000910D11240895F894FFCF21
:100B0A00556E6C6F636B0A004C6F636B0A00496E1B
:100B1A0074727564657220416C6572740A00FF25EF
:100B2A00F813D2043031321133226644CC88990C3E
:100B3A000001000000456E746572205077643A2007
:100B4A0000436F72726563742050776400496E6364
:100B5A006F72726563742050776400556E6C6F63B0
:100B6A006B3A2033004C6F636B3A20202036004CDE
:0C0B7A006F636B00556E6C6F636B0000C6
:00000001FF
